:100000000C949A000C94A6000C94A6000C94A600E4
:100010000C94A6000C94A6000C94A6000C94A600C8
:100020000C94A6000C94A6000C94A6000C94A600B8
:100030000C94A6000C94A6000C94A6000C94A600A8
:100040000C94A6000C94A6000C94A6000C94A60098
:100050000C94A6000C94A6000C94A6000C94A60088
:100060000C94A6000C94A6000C94A6000C94A60078
:100070000C94A6000C94A6000C94A6000C94A60068
:100080000C94A6000C94A6000C94A6000C94A60058
:100090000C94A6000C94A6000C94A6000C94A60048
:1000A0000C94A6000C94A6000C94A6000C94A60038
:1000B0000C94A6000C94A6000C94A6000C94A60028
:1000C0000C94A6000C94A6000C94A6000C94A60018
:1000D0000C94A6000C94A6000C94A6000C94A60008
:1000E0000C94A6000C94A6000C94A6000C94A600F8
:1000F0000C94A6000C94A6000C94A6000C94A600E8
:100100000C94A6000C94A6000C94A6000C94A600D7
:100110000C94A6000C94A6000C94A6000C94A600C7
:100120000C94A6000C94A6000C94A6000C94A600B7
:100130000C94A60011241FBECFEFD1E8DEBFCDBFC7
:1001400000E00CBF0E94A8000C94BF000C940000BB
:100150008FEF84B915B82FEF34E39CE02150304085
:100160009040E1F700C0000085B92FEF33ED90E338
:10017000215030409040E1F700C00000EBCFF894F0
:02018000FFCFAF
:00000001FF
